:100000000C9464000C948C000C948C000C944805A7
:100010000C945C050C9452050C948C000C947303A6
:100020000C948C000C948C000C9466050C948C0041
:100030000C948C000C948C000C948C000C948C0010
:100040000C9429030C948C000C947B040C945504A0
:100050000C948C000C948C000C948C000C948C00F0
:100060000C948C000C948C000000000024002700ED
:100070002A0002000000080002010000030407003B
:1000800000000000000000000000002300260029FE
:100090000000000000250028002B000404040404D4
:1000A0000404040202020202020303030303030125
:1000B00002040810204080010204081020010204FC
:1000C00008102000F40EC10E11241FBECFEFD8E09F
:1000D000DEBFCDBF12E0A0E0B1E0E0E7F5E202C094
:1000E00005900D92A433B107D9F723E0A4E3B2E061
:1000F00001C01D92A338B207E1F710E0C3E6D0E0DB
:1001000004C02197FE010E945510C236D107C9F7DD
:100110000E94120B0C94AB120C940000CF92DF9251
:10012000EF92FF920F931F93CF93DF936C017A01AD
:100130008B01C0E0D0E0CE15DF0581F0D8016D91D4
:100140008D01D601ED91FC910190F081E02DC60169
:100150000995892B11F02196EECF7E01C701DF9121
:10016000CF911F910F91FF90EF90DF90CF90089566
:10017000FC01538D448D252F30E0842F90E0821BAD
:10018000930B541710F0CF96089501970895FC0132
:10019000918D828D981761F0828DDF01A80FB11DBE
:1001A0005D968C91928D9F5F9F73928F90E00895E2
:1001B0008FEF9FEF0895FC01918D828D981731F09C
:1001C000828DE80FF11D858D90E008958FEF9FEFF0
:1001D0000895FC01918D228D892F90E0805C9F4FC6
:1001E000821B91098F739927089589EA92E00E94F2
:1001F000E90021E0892B09F420E0822F0895FC0119
:10020000848DDF01A80FB11DA35ABF4F2C91848D9F
:1002100090E001968F739927848FA689B7892C93D4
:10022000A089B1898C91837080648C93938D848D27
:10023000981306C00288F389E02D80818F7D80832A
:100240000895EF92FF920F931F93CF93DF93EC01EA
:1002500081E0888F9B8D8C8D981305C0E889F98982
:10026000808185FD26C0F62E0B8D10E00F5F1F4F9D
:100270000F731127E02E8C8DE8120CC00FB607FC0F
:10028000FACFE889F989808185FFF5CFCE010E94F8
:10029000FF00F1CF8B8DFE01E80FF11DE35AFF4FF8
:1002A000F0829FB7F8940B8FEA89FB898081806286
:1002B0000AC09FB7F894EE89FF896083E889F989BD
:1002C00080818370806480839FBF81E090E0DF91B4
:1002D000CF911F910F91FF90EF900895CF93DF93EF
:1002E000EC01888D8823C9F0EA89FB89808185FD2E
:1002F00005C0A889B9898C9186FD0FC00FB607FC8F
:10030000F5CF808185FFF2CFA889B9898C9185FFCF
:10031000EDCFCE010E94FF00E7CFDF91CF9108958E
:1003200080E090E0892B29F00E94F50081110C9467
:1003300000000895DC01ED91FC910684F785E02D25
:1003400041E0099581E090E0089508950895892B92
:1003500081F490917E0280917D02981751F0E09196
:100360007E02F0E0E35CFD4F8081082E000C990BCB
:1003700008958FEF9FEF0895892B39F48FB7F89484
:1003800010927D0210927E028FBF0895892B71F426
:1003900080917D0220917E0290E0805C9F4F821BC5
:1003A000910960E470E00E940010089580E090E000
:1003B0000895892BB9F490917E0280917D0298175F
:1003C00089F0E0917E02F0E0E35CFD4F80812091B6
:1003D0007E0230E02F5F3F4F2F73332720937E0242
:1003E00090E008958FEF9FEF089520E001972FEFA1
:1003F0008F3F9207D9F70895089580E090E008951F
:100400001F93CF93DF93C0918E0286E0C89FE001D7
:100410001124CD5FDE4F1881109393026A817B8196
:10042000072E000C880B990B0E947F1160938F029E
:100430007093900280939102909392028C819D819F
:10044000880F991F880F991F90938D0280938C02BB
:1004500010938202DF91CF911F910895FC0186894C
:100460008F3F79F021853285662319F0232B31F4F3
:1004700003C02130310511F461E001C060E00C944B
:100480000A090895EF92FF921F93CF93DF93EC0137
:10049000162F7A0161E0812F0E9474091E8BFA8663
:1004A000E986E881F9810484F585E02D60E0CE01DC
:1004B000DF91CF911F91FF90EF9009940E94A612B7
:1004C0000F931F93CF93DF93EC01162F042F61E05E
:1004D000413009F060E08B850E940A098C858F3FCE
:1004E00019F060E00E940A09023081F08C8184FFDB
:1004F00002C048E00CC0612F70E084E075956795FC
:100500008A95E1F744E0CE010E94390944E0612F69
:10051000CE01DF91CF911F910F910C943909DF9299
:10052000EF92FF920F931F93CF93DF93EC01298DEE
:100530003A8D2115310529F481E090E09B838A836F
:100540005AC0162FDFB6F8948B8D81FD4DC0CE01B9
:100550000E94FE08898D9A8D05960E94F5018B8D6B
:1005600098E0E92EF12C01E081FF1AC0812F802351
:1005700021F0CE010E94FE0806C0E989FA89908127
:100580008889892B8083898D9A8D0E94F501000FBF
:1005900081E0E81AF10851F7CE010E94FE081CC064
:1005A000812F802339F0E989FA8990818889892B04
:1005B000808303C0CE010E94FE08898D9A8D0E941F
:1005C000F501000F81E0E81AF10851F7E989FA898D
:1005D00090818889892B8083DFBE898D9A8D0E94C6
:1005E000F50121E030E007C0E989FA899081888926
:1005F000892B8083AFCFC901DF91CF911F910F91DC
:10060000FF90EF90DF9008953FB7F89480919E029D
:1006100090919F02A091A002B091A10226B5A89B43
:1006200005C02F3F19F00196A11DB11D3FBFBA2F84
:10063000A92F982F8827820F911DA11DB11DBC01E4
:10064000CD0142E0660F771F881F991F4A95D1F7A9
:1006500008951F920F920FB60F9211242F933F937C
:100660008F939F93AF93BF9380919A0290919B0237
:10067000A0919C02B0919D023091990223E0230F3A
:100680002D3720F40196A11DB11D05C026E8230FCA
:100690000296A11DB11D2093990280939A02909316
:1006A0009B02A0939C02B0939D0280919E02909128
:1006B0009F02A091A002B091A1020196A11DB11DBF
:1006C00080939E0290939F02A093A002B093A102F8
:1006D000BF91AF919F918F913F912F910F900FBE3E
:1006E0000F901F9018951F920F920FB60F92112422
:1006F0002F933F934F935F936F937F938F939F932A
:10070000AF93BF93EF93FF938091A5029091A602C0
:10071000A091A702B091A802892B8A2B8B2B59F1AB
:100720009091A202E091A302F091A4028081892716
:1007300080838091A5029091A602A091A702B0911A
:10074000A802181619061A061B060CF03DC0809167
:10075000A5029091A602A091A702B091A8020197CC
:10076000A109B1098093A5029093A602A093A702C4
:10077000B093A80229C080910201E2E7F0E0E49181
:100780009FEF90930201E130B9F098F0E230C9F4A4
:10079000909170009D7F9093700091E09093B000D5
:1007A0009091B100987F94609093B1001092B30043
:1007B00008C010926E0005C090916F009D7F9093CD
:1007C0006F0060E00E940A09FF91EF91BF91AF9125
:1007D0009F918F917F916F915F914F913F912F9159
:1007E0000F900FBE0F901F9018956115710579F04D
:1007F000FB0101900020E9F73197AF01461B570B31
:10080000DC01ED91FC910280F381E02D099480E000
:1008100090E008958F929F92AF92BF92EF92FF92D5
:100820000F931F93CF93DF93CDB7DEB7A1970FB68A
:10083000F894DEBF0FBECDBF7C01FA01CB0119A237
:10084000223008F42AE08E010F5D1F4F822E912C7A
:10085000A12CB12CBF01A50194010E941410F90133
:10086000CA01015011096A3014F4605D01C0695C6D
:10087000D8016C93232B242B252B61F7B801C701DA
:100880000E94F503A1960FB6F894DEBF0FBECDBF50
:10089000DF91CF911F910F91FF90EF90BF90AF909C
:1008A0009F908F9008950C94F5031F920F920FB6AE
:1008B0000F9211242F933F934F935F936F937F93E6
:1008C0008F939F93AF93BF93EF93FF9389EA92E047
:1008D0000E94FF00FF91EF91BF91AF919F918F9187
:1008E0007F916F915F914F913F912F910F900FBE2C
:1008F0000F901F9018951F920F920FB60F92112410
:100900002F938F939F93EF93FF93E091B902F09110
:10091000BA028081E091BF02F091C00282FD12C054
:1009200090818091C2028F5F8F732091C3028217E2
:1009300051F0E091C202F0E0E755FD4F958F8093B2
:10094000C20201C08081FF91EF919F918F912F9101
:100950000F900FBE0F901F901895DC01ED91FC9148
:100960000684F785E02D40E0099461E00E94AD0423
:100970008BE39FE10197F1F708950F931F93CF93B6
:10098000DF93EC01423018F08C8188608C834F83B8
:100990006887222329F0413019F48C8184608C838C
:1009A00064E670E080E090E00E94D80A6C8164FD0B
:1009B00031C0E881F9810684F785E02D42E063E0EB
:1009C000CE0109958BE496E40197F1F7E881F9816E
:1009D0000684F785E02D42E063E0CE01099503E54A
:1009E00012E0C8010197F1F7E881F9810684F785E3
:1009F000E02D42E063E0CE010995C8010197F1F7CF
:100A0000E881F9810684F785E02D42E062E0CE01BD
:100A1000099517C06062CE010E94AD048BE496E494
:100A20000197F1F76C816062CE010E94AD0403E58D
:100A300012E0C8010197F1F76C816062CE010E945B
:100A4000AD04C8010197F1F76C816062CE010E948C
:100A5000AD048BEE90E00197F1F784E08D836CE0BC
:100A6000CE010E94AD04CE010E94B50482E08E83C7
:100A700066E0CE010E94AD04E881F9810484F58529
:100A8000E02D6FEFCE01DF91CF911F910F9109946F
:100A90001F920F920FB60F9211240F900FBE0F905E
:100AA0001F9018951F920F920FB60F9211240F905E
:100AB0000FBE0F901F9018951F920F920FB60F92B6
:100AC00011240F900FBE0F901F9018951F920F9238
:100AD0000FB60F9211244F925F926F927F928F9276
:100AE0009F92AF92BF92CF92DF92EF92FF922F939D
:100AF0003F934F935F936F937F938F939F93AF93A6
:100B0000BF93EF93FF93CF93DF93CDB7DEB72A97D1
:100B1000DEBFCDBF20910001309101013A832983CE
:100B20008091950290919602A0919702B0919802BF
:100B30008D839E83AF83B887C0908F02D090900240
:100B4000E0909102F09092029C01AD01C701B601C4
:100B50000E946A104B015C0120E030E0A9010E9474
:100B60002F1218160CF03EC020E030E048E452E4AA
:100B7000C501B4010E94D71087FF3DC0A981BA8189
:100B8000BD0180E090E00E947D112B013C012EEA26
:100B900037E441EE5DE3C501B4010E943412A701C0
:100BA00096010E94DC1020E032E244E757E40E9404
:100BB000341269837A838B839C839B01AC01C301CC
:100BC000B2010E942F1218161CF529813A814B811F
:100BD0005C81C301B2010E946A100E944E117A87A3
:100BE000698718C01092390210923A0210923B02A3
:100BF00010923C0263C022E234EF3A8729871092B8
:100C0000390210923A0210923B0210923C025BC0F1
:100C10001A86198620E030E040E85FE360913902EF
:100C200070913A0280913B0290913C020E946B10BD
:100C300069837A838B839C836093390270933A0231
:100C400080933B0290933C02A985BA85BD0180E068
:100C500090E00E947D112B013C012DEC3CEC4CE41A
:100C60005DE3C501B4010E94341229813A814B81B0
:100C70005C810E943412A70196010E94DC1020E0E2
:100C800032E244E757E40E94341269837A838B830B
:100C90009C839B01AC01C301B2010E942F12181664
:100CA00084F429813A814B815C81C301B2010E94A5
:100CB0006A100E944E117A87698705C01A861986C4
:100CC0008DC01A8619864090350250903602609089
:100CD000370270903802A30192016D817E818F816D
:100CE00098850E942F1287FD3DC020E030E048E447
:100CF00052E4C501B4010E94D71087FF6FC0298557
:100D00003A85B90180E090E00E947D114B015C01C1
:100D1000A30192016D817E818F8198850E946A1066
:100D20002EEA37E441EE5DE30E943412A7019601FA
:100D30000E94DC1020E032E244E757E40E943412C3
:100D40006B017C019B01AC01C501B4010E942F1213
:100D500018160CF0B3CFA7019601C501B4010E948B
:100D60006A1033C02D813E814F815885C301B20185
:100D70000E946A1020E030E048EC51E40E943412F6
:100D8000A70196010E94DC1020E032E244E757E41C
:100D90000E9434126B017C01A985BA85BD0180E0F7
:100DA00090E00E947D119B01AC01C701B6010E9439
:100DB0006B106B017C0120E033E244E757E40E94B2
:100DC0002F1287FF07C0C701B6010E944E117A8714
:100DD000698704C023E234EF3A872987809134027F
:100DE0008F5F80933402823071F48D819E81AF8158
:100DF000B8858093350290933602A0933702B09362
:100E0000380210923402A985BA85B0930101A093EB
:100E10000001B0938900A093880040910001509197
:100E2000010160E070E02AE089EA92E00E940A0491
:100E300066E272E089EA92E00E94530440918800E1
:100E40005091890060E070E02AE089EA92E00E9417
:100E50000A0460E971E089EA92E00E94F5032A96AB
:100E60000FB6F894DEBF0FBECDBFDF91CF91FF91DB
:100E7000EF91BF91AF919F918F917F916F915F9112
:100E80004F913F912F91FF90EF90DF90CF90BF90C7
:100E9000AF909F908F907F906F905F904F900F904A
:100EA0000FBE0F901F901895833081F028F4813089
:100EB00099F08230A1F008958730A9F08830B9F018
:100EC0008430D1F4809180008F7D03C080918000B8
:100ED0008F7780938000089584B58F7702C084B5A2
:100EE0008F7D84BD08958091B0008F7703C080917D
:100EF000B0008F7D8093B00008951EBC00000DB43B
:100F000007FEFDCF8EB508958F929F92AF92BF924C
:100F1000CF92DF92EF92FF920F931F93CF93DF93C5
:100F20006B017C01142F9B01AC010E94A11288234C
:100F300019F068E272E027C046015701E894B7F85B
:100F40002FEF3FEF4FE75FE7C501B4010E94A11209
:100F500081110DC02FEF3FEF4FE75FE7C501B401EF
:100F60000E94D71018161CF46CE272E00CC02FEF30
:100F70003FEF4FE75FE4C701B6010E942F1218163A
:100F800094F460E372E086E493E0DF91CF911F91E7
:100F90000F91FF90EF90DF90CF90BF90AF909F9018
:100FA0008F900C94F5032FEF3FEF4FE75FECC701F5
:100FB000B6010E94D71087FDE4CF20E030E0A90100
:100FC000C701B6010E94D71087FF0BC06DE286E40F
:100FD00093E00E949A01EC01F7FAF094F7F8F0948C
:100FE00002C0C0E0D0E000E060E070E080E09FE39D
:100FF000101741F020E030E040E251E40E94DC10A4
:101000000F5FF6CFA70196010E946B106B017C0168
:101010000E944E114B015C012AE0AB01BC0186E449
:1010200093E00E940A04C80FD91F1123C9F1C5011A
:10103000B4010E947D119B01AC01C701B6010E9461
:101040006A106B017C016EE286E493E00E949A01D3
:10105000C80FD91F20E030E040E251E4C701B601DB
:101060000E9434124B015C010E944E116B01E12C75
:10107000F12C2AE0B701A60186E493E00E940A045D
:10108000C80FD91FC701B6010E947D119B01AC0199
:10109000C501B4010E946A106B017C011150D1F6A8
:1010A000CE01DF91CF911F910F91FF90EF90DF90D4
:1010B000CF90BF90AF909F908F9008950F931F9304
:1010C000CF93DF93CDB7DEB728970FB6F894DEBF86
:1010D0000FBECDBF00911B0110911C0120911D017D
:1010E00030911E010D831E832F83388700911F01CD
:1010F00010912001209121013091220109831A834E
:101100002B833C8390914D03691710F06FEF690FAB
:1011100040914E03262F30E0FE01E20FF31F4031D5
:1011200021F4943011F4618101C06581680F606819
:1011300086E493E028960FB6F894DEBF0FBECDBFCD
:10114000DF91CF911F910F910C94AD04CF92DF925C
:10115000EF92FF92CF93DF936C01990FEE08FF0897
:10116000F7FE1BC06DE286E493E00E949A01EC0159
:1011700044275527BA014C195D096E097F092AE0F9
:1011800086E493E00E940A048C0F9D1FDF91CF91AB
:10119000FF90EF90DF90CF9008952AE0B701A6016D
:1011A00086E493E0DF91CF91FF90EF90DF90CF90B6
:1011B0000C940A04CF93DF93EBE7F0E08491E7EB24
:1011C000F0E0D491E3EAF0E0C491CC2391F08111F6
:1011D0000E945407EC2FF0E0EE0FFF1FE957FF4F7E
:1011E000A591B491EC91ED2381E090E021F480E0B1
:1011F00002C080E090E0DF91CF910895DC0151962C
:10120000ED91FC915297908150968C918095892315
:10121000808308951F93CF93DF93282F30E0F90147
:10122000ED58FF4F8491F901E155FF4FD491F90139
:10123000E556FF4FC491CC23C1F0162F81110E94B7
:101240005407EC2FF0E0EE0FFF1FEF56FF4FA59174
:10125000B4919FB7F894111104C08C91D095D82304
:1012600002C0EC91DE2BDC939FBFDF91CF911F91E9
:101270000895AF92BF92CF92DF92EF92FF920F93B9
:101280001F93CF93DF938C015C018EE0A80EB11CFD
:10129000C42ED12CC0E0D0E0E62EF12CCC15DD051B
:1012A00079F0B7010C2E02C0759567950A94E2F7A4
:1012B0006170F50181915F010E940A092196EECFCC
:1012C00061E0F80185850E940A0960E0F8018585E2
:1012D000DF91CF911F910F91FF90EF90DF90CF9012
:1012E000BF90AF900C940A09CF93DF9390E0FC017C
:1012F000E155FF4F2491FC01E556FF4F849188236F
:1013000061F190E0880F991FFC01E859FF4FC591EA
:10131000D491FC01EF56FF4FA591B491611109C022
:101320009FB7F8948881209582238883EC912E239F
:101330000BC0623061F49FB7F8948881322F3095EA
:1013400083238883EC912E2B2C939FBF06C08FB7ED
:10135000F894E8812E2B28838FBFDF91CF910895D9
:10136000CF92DF92EF92FF921F93CF93DF936B01A7
:101370007C01809102018B3021F08F3F09F010C178
:1013800004C0E2E7F0E0C49175C08BE080930201F5
:10139000E2E7F0E0E491EF3F09F402C1E13009F443
:1013A00046C048F1E23009F064C01092B0001092DB
:1013B000B1008091B00082608093B0008091B10054
:1013C00081608093B100E6EAF0E0E491F0E0EE0F96
:1013D000FF1FEF56FF4F859194919093A402809345
:1013E000A302EAEBF0E0E491E093A20261E08BE07B
:1013F0000E947409C8C014BC15BC84B5826084BD49
:1014000085B5816085BDE6EAF0E0E491F0E0EE0F9D
:10141000FF1FEF56FF4F85919491EAEBF0E0E491C6
:10142000E0937A0361E08BE00E9474094DC0109252
:1014300080001092810080918100886080938100FB
:1014400080918100816080938100E6EAF0E0E49180
:10145000F0E0EE0FFF1FEF56FF4F85919491EAEBFE
:10146000F0E0E491E093790361E08BE00E9474097D
:101470000EC0CE2FC7FD94C061E08BE00E947409BE
:10148000CC2311F1C23009F47EC0C13089F48091BF
:101490008100887F816080938100C114D104E104C0
:1014A000F10471F42FEF3FEFA901D4E114E33EC042
:1014B000D4E114E3C114D104E104F104F9F011C042
:1014C000C1E0D4E114E30DC085B5887F836085BD9C
:1014D000C114D104E104F10409F450C0C0E0DFEC10
:1014E00010E0A0EBB4E0A70196010E94361028EEB0
:1014F00033E040E050E00E94141003C02FEF3FEFB4
:10150000A901C13099F0C23049F1C11149C0D7BD1C
:1015100020937F0330938003409381035093820391
:1015200080916E00826080936E003AC08D2F912F63
:10153000909389008093880020937B0330937C03F1
:1015400040937D0350937E0380916F00826080936F
:101550006F0026C02FEF3FEFA901DFECD093B3005F
:101560002093A5023093A6024093A7025093A802AD
:101570008091700082608093700012C02FEF3FEF67
:10158000A901DFECC4CF8091B100887F8460809393
:10159000B100C114D104E104F104E1F2C2E09FCF33
:1015A000DF91CF911F91FF90EF90DF90CF90089542
:1015B0008F929F92AF92BF92CF92DF92EF92FF9263
:1015C0006B017C010E9404034B015C01C114D10436
:1015D000E104F104F1F00E940403DC01CB0188195D
:1015E0009909AA09BB09883E9340A105B10570F38A
:1015F00021E0C21AD108E108F10888EE880E83E0E4
:10160000981EA11CB11CC114D104E104F10419F706
:10161000DDCFFF90EF90DF90CF90BF90AF909F9085
:101620008F900895789484B5826084BD84B581607C
:1016300084BD85B5826085BD85B5816085BD80919D
:101640006E00816080936E00109281008091810015
:10165000826080938100809181008160809381000D
:10166000809180008160809380008091B1008460CF
:101670008093B1008091B00081608093B000809130
:101680007A00846080937A0080917A0082608093EF
:101690007A0080917A00816080937A0080917A004C
:1016A000806880937A001092C100E091B902F091B5
:1016B000BA0282E08083E091B502F091B602108216
:1016C000E091B702F091B8028FEC80831092C102D2
:1016D000E091BD02F091BE0286E08083E091BB0202
:1016E000F091BC02808180618083E091BB02F09127
:1016F000BC02808188608083E091BB02F091BC02D3
:10170000808180688083E091BB02F091BC0280817F
:101710008F7D808320E044E064E186E493E00E94D2
:10172000BD0462E088E00E94740961E08EE00E94DE
:10173000740961E08FE00E94740961E08AE00E9410
:10174000740960E08AE00E940A0968EE73E080E0B4
:1017500090E00E94D80ACFB7F89480917F0281115F
:1017600027C0E5EAF0E08491E9EBF0E09491E82FFE
:10177000F0E0EE0FFF1FE859FF4FA591B491EC91F7
:10178000E92321F461E08AE00E940A0961E08AE02D
:101790000E9474098CB580618CBD8CB580648CBD51
:1017A00061E08DE00E94740961E08BE00E947409A1
:1017B00080917F028F5F80937F02CFBF8CB58F7D3A
:1017C0008CBD8CB58C7F8CBD8DB58E7F8DBD8CB561
:1017D000837F8CBD61E08AE00E940A091092940226
:1017E000F89461E089E00E947409109280001092E0
:1017F000810010926F008091800082688093800049
:10180000809181008C618093810083E294EF9093BA
:1018100087008093860082E294EF90938900809302
:10182000880080916F00806280936F00789400E060
:1018300010E462E0262E74E0D72EE4E0EE2EF12CC8
:1018400060E08AE00E940A090E947D07C82FD0E06C
:10185000DC2FCC270E947D07C82B0E947D070E94A9
:101860007D07C82E61E08AE00E940A09C0FF26C0F9
:10187000CC2D6BE571E089EA92E00E945304C2FE30
:1018800006C063E671E089EA92E00E945304C1FF5A
:1018900006C062E771E089EA92E00E945304C0FF4B
:1018A00006C061E871E089EA92E00E94530460E9B1
:1018B00071E089EA92E00E94F50320C0BE017695AE
:1018C000679576956795D7FD09C080E090E00E9406
:1018D0007D1120E030E040E85EE30CC0C801861BCB
:1018E000970BBC0180E090E00E947D1120E030E089
:1018F00040E85EEB0E9434124B015C0120E030E0D6
:1019000040EA51E4C501B4010E946A106093950257
:10191000709396028093970290939802209194027C
:101920002230B1F128F4222359F02130D1F069C0DE
:10193000243009F44CC0E0F1253009F45CC061C0EA
:1019400086E493E00E94B5041092930210928F02F5
:1019500010929002109291021092920210928E02B6
:1019600011C00E94DA08892B09F04BC060E273E0D5
:1019700080E090E00E94B00986E493E00E94B50404
:101980000E940002809194028F5F8093940239C07C
:1019900020918F02309190024091910250919202D9
:1019A0000E942F1287FD2DC093E09093940229C0CE
:1019B00080918C0290918D02019790938D0280937B
:1019C0008C0218161906ECF0D09294021AC0C0913D
:1019D0008E02CF5FC0938E020E940002C33018F4C3
:1019E000209294020EC06CED75E080E090E00E94C1
:1019F000B00985E0CACF0E94DA08892B11F4109251
:101A0000940230909502C0909602D0919702C091B6
:101A10009802409088025090890260908A027090EB
:101A20008B029201A301632D7C2D8D2F9C2F0E9490
:101A30002F12181624F4432C5C2C6D2E7C2EC20120
:101A4000D3018093880290938902A0938A02B09375
:101A50008B0240908F0250909002609091027090A3
:101A60009202A3019201632D7C2D8D2F9C2F0E9449
:101A70002F1218161CF41092820216C020E030E0DB
:101A800040E05FE3C301B2010E946A109B01AC0118
:101A9000632D7C2D8D2F9C2F0E94D71087FF04C0B3
:101AA00080919302809382027090820270FC02C047
:101AB00060E001C061E08EE00E940A0971FC02C092
:101AC00060E001C061E08FE00E940A0960E083E00D
:101AD0000E945E0863E971E086E493E00E9453048B
:101AE000609100017091010180E090E00E947D1101
:101AF00020E033E244E757E40E94DC1020E030E0CD
:101B000048EC52E40E943412609384027093850280
:101B1000809386029093870280919402823020F015
:101B2000863008F0C4C01EC06BE971E086E493E023
:101B30000E94530461E081E00E945E08809183026C
:101B4000882319F063EA71E002C066EB71E086E475
:101B500093E00E94530463E083E00E945E0869EC16
:101B600071E0A1C0853051F080918302882319F083
:101B700067ED71E005C061EC71E002C06FED71E0EE
:101B800086E493E00E94530461E080E00E945E08D6
:101B90008091820280FD03C067EE71E017C06BEF99
:101BA00071E086E493E00E94530460918402709196
:101BB000850280918602909187024AE00E94840704
:101BC00061E082E10E945E0869E072E086E493E0F1
:101BD0000E94530461E080E00E945E0880918202CE
:101BE00081FD03C067EE71E017C06BEF71E086E422
:101BF00093E00E9453046091840270918502809169
:101C00008602909187024AE00E94840761E082E1A7
:101C10000E945E0869E072E086E493E00E9453044B
:101C200063E085E00E945E086EE072E086E493E087
:101C30000E94530480919402833069F580918C0254
:101C400090918D0297FD039695958795959587952B
:101C50000E94A60864E172E086E493E00E945304C7
:101C600080918C0290918D02B7010E9400104AE091
:101C7000489F9001499F300D112437FF02C02D5F0E
:101C80003F4FC90195958795959587950E94A60820
:101C900066E172E002C06AE172E086E493E00E94CD
:101CA000530466EC71E086E493E00E94530462E022
:101CB00082E00E945E0820E030E048EC52E4632DB0
:101CC0007C2D8D2F9C2F0E94D71087FF06C067ECBC
:101CD00071E086E493E00E94530420E030E040E2AB
:101CE00051E4632D7C2D8D2F9C2F0E94D71087FFF0
:101CF00006C067EC71E086E493E00E94530442E082
:101D0000632D7C2D8D2F9C2F0E94840762E272E050
:101D100086E493E00E94530460918F0270919002D8
:101D2000809191029091920242E00E94840766ECB9
:101D300071E086E493E00E945304809180029091C8
:101D400081020196843091052CF490938102809356
:101D500080020EC010928102109280028091830254
:101D6000811104C081E08093830202C0109283023B
:101D70006AEF70E080E090E00E94D80A0E94900133
:101D80005FCD8DE491E090935E0380935D0320919D
:101D90006903263140F5283028F02E3030F0ECE68B
:101DA000F0E005C0EDE6F0E002C0EBE6F0E03081E7
:101DB000283038F481E090E001C0880F2A95EAF7D6
:101DC0000FC0422F50E02E3018F44850510902C085
:101DD0004E50510981E090E001C0880F4A95EAF722
:101DE00080958323808308950F931F93CF93DF9370
:101DF0001092AC021092AB0288EE93E0A0E0B0E04B
:101E00008093AD029093AE02A093AF02B093B00264
:101E100027E231E03093AA022093A90225EC30E0BA
:101E20003093B6022093B50224EC30E03093B80230
:101E30002093B70220EC30E03093BA022093B9022D
:101E400021EC30E03093BC022093BB0222EC30E066
:101E50003093BE022093BD0226EC30E03093C002E6
:101E60002093BF021092C2021092C3021092C402C9
:101E70001092C5021092600310925F038093610379
:101E800090936203A0936303B09364038DE491E0A5
:101E900090935E0380935D03109271031092700320
:101EA00010927303109272031092750310927403D0
:101EB0001092770310927603809178038E7F8D7F46
:101EC0008093780361E081E00E94740961E081E021
:101ED0000E940A09E0EBF0E0E491E0936D03ECE985
:101EE000F0E0E491F0E0EE0FFF1FEF56FF4F859119
:101EF000949190936F0380936E0360E080E00E9462
:101F000074098091780381FD04C061E080E00E9443
:101F10000A0910926903EFEAF0E0E491E0936A03A2
:101F2000EBE9F0E0E491F0E0EE0FFF1FE957FF4F1F
:101F30008591949190936C0380936B031092490365
:101F40001092480389E391E09093470380934603FE
:101F500082E0809351038FEF8093520383E080935C
:101F6000530384E08093540385E08093550386E017
:101F70008093560387E08093570310925803109282
:101F8000590310925A0310925B03C4E5D3E008E5AD
:101F900013E061E089910E9474090C171D07C9F7CD
:101FA00061E0809151030E947409809152038F3F38
:101FB00019F061E00E94740961E0809153030E946E
:101FC000740910924A0360E0809151030E940A094B
:101FD00060E0809153030E940A09809152038F3F71
:101FE00019F060E00E940A098FEF80935C03109261
:101FF000500310924F03DF91CF911F910F910895DD
:1020000097FB072E16F4009407D077FD09D00E94A5
:10201000411007FC05D03EF4909581959F4F08959F
:10202000709561957F4F0895A1E21A2EAA1BBB1BE4
:10203000FD010DC0AA1FBB1FEE1FFF1FA217B30794
:10204000E407F50720F0A21BB30BE40BF50B661FAA
:10205000771F881F991F1A9469F76095709580956E
:1020600090959B01AC01BD01CF0108950E945B10CA
:10207000A59F900DB49F900DA49F800D911D1124DC
:102080000895AA1BBB1B51E107C0AA1FBB1FA617BF
:10209000B70710F0A61BB70B881F991F5A95A9F711
:1020A00080959095BC01CD010895EE0FFF1F05901E
:1020B000F491E02D0994A29FB001B39FC001A39FAA
:1020C000700D811D1124911DB29F700D811D112471
:1020D000911D08955058BB27AA270E9482100C9486
:1020E000F5110E94E71138F00E94EE1120F039F44A
:1020F0009F3F19F426F40C94E4110EF4E095E7FBED
:102100000C94DE11E92F0E94061258F3BA176207E9
:1021100073078407950720F079F4A6F50C9428122C
:102120000EF4E0950B2EBA2FA02D0B01B9019001F2
:102130000C01CA01A0011124FF27591B99F0593F36
:1021400050F4503E68F11A16F040A22F232F342F7E
:102150004427585FF3CF469537952795A795F040CC
:102160005395C9F77EF41F16BA0B620B730B840BE1
:10217000BAF09150A1F0FF0FBB1F661F771F881F99
:10218000C2F70EC0BA0F621F731F841F48F48795F1
:1021900077956795B795F7959E3F08F0B0CF9395E3
:1021A000880F08F09927EE0F9795879508950E945C
:1021B000BA1108F481E008950E94F0100C94F51112
:1021C0000E94EE1158F00E94E71140F029F45F3FA1
:1021D00029F00C94DE1151110C9429120C94E41185
:1021E0000E94061268F39923B1F3552391F3951BCE
:1021F000550BBB27AA2762177307840738F09F5F28
:102200005F4F220F331F441FAA1FA9F335D00E2E94
:102210003AF0E0E832D091505040E695001CCAF701
:102220002BD0FE2F29D0660F771F881FBB1F2617C4
:1022300037074807AB07B0E809F0BB0B802DBF019B
:10224000FF2793585F4F3AF09E3F510578F00C946A
:10225000DE110C9429125F3FE4F3983ED4F3869587
:1022600077956795B795F7959F5FC9F7880F911D8B
:102270009695879597F90895E1E0660F771F881F77
:10228000BB1F621773078407BA0720F0621B730B2A
:10229000840BBA0BEE1F88F7E09508950E940E128A
:1022A00088F09F5798F0B92F9927B751B0F0E1F017
:1022B000660F771F881F991F1AF0BA95C9F714C0C7
:1022C000B13091F00E942812B1E008950C942812C8
:1022D000672F782F8827B85F39F0B93FCCF3869500
:1022E00077956795B395D9F73EF49095809570955D
:1022F00061957F4F8F4F9F4F0895E89409C097FBDA
:102300003EF490958095709561957F4F8F4F9F4FCC
:102310009923A9F0F92F96E9BB279395F695879510
:1023200077956795B795F111F8CFFAF4BB0F11F4D3
:1023300060FF1BC06F5F7F4F8F4F9F4F16C088237A
:1023400011F096E911C0772321F09EE8872F762FB0
:1023500005C0662371F096E8862F70E060E02AF0F1
:102360009A95660F771F881FDAF7880F96958795DD
:1023700097F90895990F0008550FAA0BE0E8FEEFB2
:1023800016161706E807F907C0F012161306E40739
:10239000F50798F0621B730B840B950B39F40A2632
:1023A00061F0232B242B252B21F408950A2609F410
:1023B000A140A6958FEF811D811D089597F99F6714
:1023C00080E870E060E008959FEF80EC08950024BD
:1023D0000A941616170618060906089500240A948A
:1023E00012161306140605060895092E0394000C10
:1023F00011F4882352F0BB0F40F4BF2B11F460FF9F
:1024000004C06F5F7F4F8F4F9F4F089557FD9058C7
:10241000440F551F59F05F3F71F04795880F97FBA8
:10242000991F61F09F3F79F0879508951216130662
:102430001406551FF2CF4695F1DF08C01616170691
:102440001806991FF1CF86957105610508940895C6
:10245000E894BB2766277727CB0197F908950E9458
:10246000BA1108F48FEF08950E9447120C94F511E9
:102470000E94E71138F00E94EE1120F0952311F030
:102480000C94DE110C94E41111240C9429120E9476
:10249000061270F3959FC1F3950F50E0551F629F90
:1024A000F001729FBB27F00DB11D639FAA27F00DAD
:1024B000B11DAA1F649F6627B00DA11D661F829FD4
:1024C0002227B00DA11D621F739FB00DA11D621FB9
:1024D000839FA00D611D221F749F3327A00D611DD6
:1024E000231F849F600D211D822F762F6A2F1124B8
:1024F0009F5750409AF0F1F088234AF0EE0FFF1FEB
:10250000BB1F661F771F881F91505040A9F79E3F41
:10251000510580F00C94DE110C9429125F3FE4F316
:10252000983ED4F3869577956795B795F795E79597
:102530009F5FC1F7FE2B880F911D9695879597F9A0
:1025400008950E94BA11880B990B089581E090E0DC
:10255000F8940C94AB1210E0C3E6D0E004C0FE0186
:102560000E9455102196C436D107C9F7F894FFCFC1
:1025700022F4FF020082000F000300E600000002C8
:1025800000E100640000000000000000401454005E
:102590004010500000000021018E00B8006E01E9DB
:1025A00000C700DB00000000009A018E00FD01FC66
:1025B00001BD0442022E026002000000008F028E64
:1025C00000FD01BC01C601D901A7014552524F527D
:1025D0003A200053686F727420746F205663632C26
:1025E000200053686F727420746F20474E442C2073
:1025F000004F70656E20436972637569742C20000A
:102600000D0A005354415455533A002D2D2D2D2DB4
:102610002D2D007072657373205354415254206203
:102620007574746F6E002020202020202020202030
:10263000202020202020202000494741524153489B
:1026400049204C61626F0052554E4E494E4700463C
:10265000494E49534821002050574D3A4F46462095
:1026600020202020202020202020002050574D3ADC
:102670004F4E20647574793D00252020200057417D
:1026800049543A002E00736563002D2D2D2E2D2008
:102690002000202F200009006E616E00696E660028
:0426A0006F766600EB
:00000001FF
